:020000040800F2
:100000000811002001010008B3500008F54900085C
:10001000B1500008451A00082D5B000800000000E0
:1000200000000000000000000000000079570008F8
:10003000B11E000800000000B55000087B57000802
:100040001B0100081B0100081B0100081B01000820
:100050001B0100081B010008352800081B010008CF
:100060001B0100081B0100081B010008A51E000859
:100070001B0100081B0100081B0100081B010008F0
:100080001B0100081B0100081B0100081B010008E0
:100090001B0100081B0100081B0100081B010008D0
:1000A0001B0100081B0100081B0100081B010008C0
:1000B0001B010008E9570008F55700081B0100085C
:1000C0001B0100081B0100081B0100081B010008A0
:1000D0001B010008215B00081B0100081B01000830
:1000E0001B0100081B0100081B010008DFF80CD0F1
:1000F00000F028FA00480047115D000808110020B0
:100100000648804706480047FEE7FEE7FEE7FEE7B1
:10011000FEE7FEE7FEE7FEE7FEE7FEE7E75700083B
:10012000ED000008202A04DB203A21FA02F0002129
:10013000704721FA02F3D040C2F1200291400843F7
:1001400019467047D2B201E000F8012B491EFBD2DC
:1001500070470022F6E710B513460A4604461946D2
:10016000FFF7F0FF204610BD421C10F8011B0029CC
:10017000FBD1801A70472DE9FE4F804681EA0300CB
:10018000C00F0C46009021F0004123F00045B8EB71
:100190000200A94105D24046214690461C460B4626
:1001A000024623F00040104347D0270DC7F30A0052
:1001B000C3F30A510290401A019040286BDAC3F34E
:1001C000130040F4801B0098924620B10023D2EB2C
:1001D000030A63EB0B0B01985946C0F140025046ED
:1001E00000F032F906460D4650465946019A00F095
:1001F0003AF910EB08006141002487EA115284EAC1
:10020000E7731A4340D0009A62B3019A012A4FEA79
:10021000075215DC001B61EB02014FF0004202EABD
:100220000752CDE90042001C41F5801132462B46B1
:1002300000F03AF903B0BDE8F08F40462146F9E7F7
:10024000001B61EB0201001C41F5801300185B41AB
:100250002018A2F5001747EB030140EAD570B61944
:100260006D4111E06D084FEA360645EAC0754FEA68
:100270000752001B61EB0201001C41F58011490887
:100280004FEA30000019514132462B4603B0BDE819
:10029000F04F00F0FAB80098012240000023D0EBA4
:1002A000020263EBE073009821464FEAE074B8EB7A
:1002B000000061EB0401E9E783F000435BE781F0B4
:1002C000004158E72DE9F04D81EA030404F0004BAA
:1002D00021F0004514464FF0000A23F0004150EA97
:1002E000050220D054EA01021DD0C5F30A57024688
:1002F000C5F31303C1F31300C1F30A5640F480158C
:1003000043F48013A7EB0608101BD64608F2FD380D
:1003100073EB050002D308F1010801E092185B417C
:10032000B8F1000F03DA00200146BDE8F08D00208F
:100330004FF48011064684460EE0171B73EB050749
:1003400005D3121B63EB050306434CEA010C490875
:100350004FEA300092185B4150EA0107EDD152EAB2
:10036000030012D082EA040083EA0501084305D0A5
:10037000101BAB4106D20122002306E000224FF001
:10038000004302E06FF0010253101AEB06004CEB41
:10039000085110EB0A0041EB0B01BDE8F04D00F0F5
:1003A00074B80EB540F2334102910021CDE900113D
:1003B0000A460B4600F078F803B000BD30B5041EC5
:1003C00071F1000404DB4FF00044404264EB010192
:1003D000141E73F1000405DB1C464FF0004352422B
:1003E00063EB04038B4208BF824230BD30B5041E6C
:1003F00071F1000404DB4FF00044404264EB010162
:10040000141E73F1000405DB1C464FF000435242FA
:1004100063EB0403994208BF904230BD30B50B46F0
:10042000014600202022012409E021FA02F59D4224
:1004300005D303FA02F5491B04FA02F52844151EF8
:10044000A2F10102F1DC30BD202A04DB203A00FADF
:1004500002F1002070479140C2F1200320FA03F31B
:10046000194390407047202A06DBCB17203A41FA07
:1004700002F043EAE07306E041FA02F3D040C2F131
:100480002002914008431946704710B5141E73F1BD
:10049000000408DA401C41F1000192185B411A4344
:1004A00001D120F0010010BD2DE9F04D92469B4690
:1004B00011B1B1FA81F202E0B0FA80F22032904636
:1004C000FFF7C2FF04460F4640EA0A0041EA0B016B
:1004D00053465A46084313D0114653EA010019D037
:1004E000C8F140025046FFF71DFE05460E46504635
:1004F00059464246FFF7A8FF084305D0012004E013
:1005000020463946BDE8F08D0020054346EAE076F6
:100510002C4337430A986305E40AA0EB0800002245
:10052000FD0A44EA47540A3002D500200146E9E7B3
:10053000010510196941DDE9084500196941BDE867
:10054000F04DA2E7064C074D06E0E06840F00103DD
:1005500094E8070098471034AC42F6D3FFF7CAFD81
:1005600084610008A461000870B5044600688168D1
:10057000C943C90717D1816821F00101816002F0E8
:1005800093FD05460AE000BF02F08EFD401B0228E5
:1005900004D920688068C043C00706D020688068FE
:1005A000C043C007F0D0002070BDA06A40F010002A
:1005B000A062E06A40F00100E062012070BD00002E
:1005C00004489521022201700021417001463E201D
:1005D00005F06EB81000002008B50222064912206E
:1005E00004F0A8FF04480178407801EB0020ADF842
:1005F000000080B208BD00001200002004481F2146
:10060000022201700021417001463E2005F050B8E1
:100610001000002004480021022201705021417086
:100620000146622005F044B8100000200448202153
:10063000022201700021417001463E2005F038B8C9
:100640001000002004482221022201700021417084
:1006500001463E2005F02CB8100000202DE9FE4F89
:1006600007218020CDE901104FF42F744FF090083E
:100670004FF4804A4FF4FA75DFF80C9400F0F8FF5D
:10068000204605F039FB00F0FFFF204605F034FB63
:10069000FD4E0020333E022286F800807070314605
:1006A0003E2005F005F8F94F01225146384602F088
:1006B000F6FC284602F0A6FBFFF78EFF0090A6F19D
:1006C0001000BDF80010018301225103384602F0EA
:1006D000E6FC284602F096FB06F108000078C00709
:1006E000CCD04D464FF0340A4FF0BC0B062706F134
:1006F00002084FF092094FF4FA6400BF85F800A099
:1007000085F8019085F802B02D20E8700422DE49BA
:100710003E2004F0CDFF204605F0EEFA0421DA4831
:1007200001F046FB3070D8497770022233396020DF
:1007300004F0BEFF204605F0DFFAD349022231392A
:100740003E2004F0F7FE98F80100FF28D6D04FF0C5
:10075000930A0420287085F801A00198A8700298D7
:10076000E8700422C8493E2004F0A2FF204605F0AC
:10077000C3FA0421C44801F01BFB3070C249BB46D8
:10078000777002223339602004F092FF204605F092
:10079000B3FABD49022231393E2004F0CBFE98F86D
:1007A0000100FF28D5D00027B74CFD20E41E03220E
:1007B000207084F80190A77021463E2004F078FF55
:1007C0004FF47A7005F098FA0321204601F0F0FA10
:1007D00030704FF0050886F801800222A4F1300144
:1007E000602004F065FF4FF4FA6005F085FA0222FC
:1007F000A4F12E013E2004F09DFEA4F12E004178CC
:10080000FF29D1D0FF2020709F4984F80190A77064
:100810000322C91E3E2004F04BFF4FF47A7005F00E
:100820006BFA99480321C01E01F0C2FA3070964954
:1008300086F8018002223339602004F039FF4FF43A
:10084000FA6005F059FA9049022231393E2004F04D
:1008500071FE8D4831384178FF29D3D0C246B04669
:10086000012020709327884967700026A670032214
:10087000C91E3E2004F01CFF4FF47A7005F03CFACC
:1008800081480321C01E01F093FA88F800007E49D8
:1008900088F801A002223339602004F009FF4FF4E8
:1008A000FA6005F029FA7849022231393E2004F035
:1008B00041FE754831384178FF29D1D05746464628
:1008C0004FF4FA6A022020704FF0930884F80180F8
:1008D00000206D49A0700322C91E3E2004F0E8FEEE
:1008E0004FF47A7005F008FA67480321C01E01F042
:1008F0005FFA30706449777002223339602004F067
:10090000D7FE504605F0F8F95F49022231393E2002
:1009100004F010FE5C4831384178FF29D2D04F46B0
:100920005446DFF864916121A9F10309032289F893
:10093000001089F80170FC2189F8021049463E2018
:1009400004F0B6FE204605F0D7F90321484601F031
:100950002FFA30704FF0050A86F801A00222A9F1A3
:100960003001602004F0A4FE204605F0C5F9022203
:10097000A9F12E013E2004F0DDFDA9F12E00417801
:10098000FF29CED0B14626463F486221C01E032231
:10099000017047704021817001463E2004F088FEBE
:1009A0003446304605F0A8F937480321C01E01F04F
:1009B000FFF989F80000344989F801A0022233398F
:1009C000602004F075FE204605F096F92E490222BB
:1009D00031393E2004F0AEFD2B4C313C6078FF28CD
:1009E000D2D004F12E00FB210170922141704221EE
:1009F0008170014603223E2004F05AFE304605F085
:100A00007BF9032104F12E0001F0D2F989F80000EE
:100A1000574689F801A00222A11E602004F048FE7A
:100A2000304605F069F94C464FF09209B246164E31
:100A3000FC20F61E0322307086F801902A20B07048
:100A400031463E2004F034FE504605F055F90321AE
:100A5000304601F0ADF9207067700222A6F1300136
:100A6000602004F025FE504605F046F90222A6F16A
:100A70002E013E2004F05EFDA6F12E004178FF29F4
:100A8000D5D08046564603E04300002000100140C8
:100A9000FE48352193270170477007218170014678
:100AA00003223E2004F004FE304605F025F9032120
:100AB000F64801F07DF920700520F44960700222AB
:100AC0003039602004F0F4FD304605F015F9EF49A7
:100AD00002222E393E2004F02DFD98F80110FF2946
:100AE000D1D05F464FEA040B3B212970932140F699
:100AF00048546970AC70210AE970E449AA4604229E
:100B0000C91C3E2004F0D4FD304605F0F5F8DF485E
:100B10000421C01C01F04CF98BF80000DB498BF874
:100B2000017002223039602004F0C2FD304605F029
:100B3000E3F8D64902222E393E2004F0FBFC98F857
:100B40000100FF28D0D0D14D3D20032228709320F2
:100B500068701E20A87029463E2004F0A9FD4FF4BD
:100B60007A7005F0C9F80321284601F021F98BF8C5
:100B7000000005208BF801000222A5F13001602061
:100B800004F096FD4FF47A7005F0B6F83E20287018
:100B9000932068701420A870032229463E2004F098
:100BA00087FD4FF47A7005F0A7F80321284601F07D
:100BB000FFF88BF8000005208BF801000222A5F158
:100BC0003001602004F074FD4FF47A7005F094F861
:100BD0005F463F218AF8001093218AF801108AF8B5
:100BE0000240210A8AF80310A8490422C91C3E20A9
:100BF00004F05EFD304605F07FF8A4480421C01CD7
:100C000001F0D6F83870A1494FF0060B87F801B013
:100C100002223039602004F04BFD304605F06CF8BC
:100C20009A4902222E393E2004F084FC98F80100F3
:100C3000FF28CED041202870932068701E20A87015
:100C4000032292493E2004F033FD4FF4FA6005F090
:100C500053F803218D4801F0ABF838703C468B49BE
:100C60000527677002223039602004F021FD4FF41F
:100C7000FA6005F041F8422028709320687014262D
:100C8000AE70032281493E2004F012FD4FF4FA6059
:100C900005F032F803217D4801F08AF820707B4985
:100CA000677002223039602004F002FD4FF4FA60D0
:100CB00005F022F83920287093206870AE70032266
:100CC00072493E2004F0F4FC4FF4FA6005F014F889
:100CD00003216E4801F06CF820706C4967700222A5
:100CE0003039602004F0E4FC4FF4FA6005F004F8B9
:100CF0003A202870932068700220A870032263496C
:100D00003E2004F0D5FC4FF4FA6004F0F5FF032117
:100D10005E4801F04DF820705C496770022230395E
:100D2000602004F0C5FC4FF4FA6004F0E5FFC8460B
:100D30004FF4FA666520287085F801809820A87025
:100D4000032252493E2004F0B3FC304604F0D4FFA5
:100D500003214E4801F02CF820704C4967700222A4
:100D60003039602004F0A4FC304604F0C5FF474948
:100D700002222E393E2004F0DDFB44482E38417813
:100D8000FF29D7D081466920287085F80180E420AA
:100D9000A87003223D493E2004F08AFC304604F04E
:100DA000ABFF0321394801F003F820703749677021
:100DB00002223039602004F07BFC304604F09CFFB6
:100DC000324902222E393E2004F0B4FB99F801107A
:100DD000FF29D8D07820287085F801805520A87088
:100DE00003222A493E2004F063FC304604F084FFCD
:100DF0000321264800F0DCFF20702449677002229E
:100E00003039602004F054FC304604F075FF1F496F
:100E100002222E393E2004F08DFB99F80100FF28B4
:100E2000D8D01A487C214546017080F80180022103
:100E30008170014603223E2004F03AFCB046304661
:100E400004F05AFF0321114800F0B2FF20700F494F
:100E5000677002223039602004F02AFC404604F01A
:100E60004BFF5646DA46CB464FF0080979213170E0
:100E7000757086F802904FEA19200449F070032239
:100E8000C91C3E2004F014FC404601E04000002054
:100E900004F032FF0321FE4800F08AFF2070FC4975
:100EA00084F801A002223339602004F001FC40469E
:100EB00004F022FFF649022231393E2004F03AFBC9
:100EC0009BF80110FF29D1D0BB46F14F7520FF1EC2
:100ED000032238707D703F20B87039463E2004F000
:100EE000E7FB404604F008FF0321384600F060FFAE
:100EF000207084F801B00222A7F13001602004F0D4
:100F0000D7FB404604F0F8FE0222A7F12E013E2056
:100F100004F010FBA7F12E004178FF29D5D04546FB
:100F20007B20387092207870D9494FF0020B87F8F7
:100F300002B00322C91E3E2004F0BAFB284604F08A
:100F4000DBFED3480321C01E00F032FF2070D049E1
:100F50004FF0050884F8018002223339602004F044
:100F6000A7FB284604F0C8FEC949022231393E20B9
:100F700004F0E0FAC64831384178FF29D0D08246E3
:100F80009226C34976224FEA19200A704E7081F8E2
:100F90000290C87003223E2004F08AFB284604F029
:100FA000ABFE0321BA4800F003FF20700620B849C9
:100FB000607002223339602004F07AFB284604F086
:100FC0009BFEB349022231393E2004F0B3FA9AF86D
:100FD00001105046FF29D4D0BA4647468346A8465A
:100FE00086208AF800008AF801600220A8498AF861
:100FF000020055460322C91E3E2004F059FB40461C
:1010000004F07AFEA2480321C01E00F0D1FE207039
:101010009F49677002223339602004F049FB404643
:1010200004F06AFE9A49022231393E2004F082FA25
:101030009BF80110FF29D3D0B2464646872028707E
:1010400085F801A007209249A870D0460322C91E46
:101050003E2004F02DFB304604F04EFE8C48032168
:10106000C01E00F0A5FE2070894967700222333946
:10107000602004F01DFB304604F03EFE844902224D
:1010800031393E2004F056FA9BF80110FF29D5D0E3
:10109000BA464746952028706F7001207C49A87099
:1010A0000322C91E3E2004F003FBB046304604F084
:1010B00023FE77480321C01E00F07AFE2070744999
:1010C00084F801A002223339602004F0F1FA40468E
:1010D00004F012FE6E49022231393E2004F02AFA51
:1010E0009BF80110FF29D5D0AB46564625468220F5
:1010F0008BF800004FF0030A65498BF801705C46DD
:101100008BF802A05246C91E3E2004F0D1FA404698
:1011100004F0F2FD5E480321C01E00F049FE287075
:101120005B496E7002223339602004F0C1FA4046F8
:1011300004F0E2FD5649022231393E2004F0FAF96A
:10114000534831384178FF29D1D0CB46C14683205E
:1011500020704F496770D84684F802B00322C91E38
:101160003E2004F0A5FA484604F0C6FD4848032195
:10117000C01E00F01DFE287045496E7002223339F2
:10118000602004F095FA484604F0B6FD404902227A
:1011900031393E2004F0CEF93D4831384178FF29FD
:1011A000D5D0834684202070677004203849A07011
:1011B0000322C91E3E2004F07BFA484604F09CFD41
:1011C00033480321C01E00F0F3FD287030496E70D3
:1011D00002223339602004F06BFA484604F08CFD9B
:1011E0002B49022231393E2004F0A4F99BF801106A
:1011F000FF29D7D0C346C846852020702449677090
:10120000D94684F802B00322C91E3E2004F050FAE9
:10121000404604F071FD1E480321C01E00F0C8FDC9
:1012200028701B496E7002223339602004F040FAA6
:10123000404604F061FD1649022231393E2004F097
:1012400079F9134831384178FF29D5D0BA46834619
:10125000474680202070032084F801A00C49A0702C
:101260000246D046C91E3E2004F022FA384604F059
:1012700043FD07480321C01E00F09AFD2870044971
:101280006E7002223339602004F012FA384601E011
:101290004300002004F030FD0222AD493E2004F05E
:1012A00049F99BF80110FF29D3D0DA46C3468120C3
:1012B0002070A74984F801B084F8029003222E31EF
:1012C0003E2004F0F5F9384604F016FDA04803214D
:1012D0002E3000F06DFD28709D496E700222891E2F
:1012E000602004F0E5F9384604F006FD0222984932
:1012F0003E2004F01FF99AF80110FF29D7D04FF0D3
:1013000006094FF0000A924F43203137042238700B
:10131000932078701020B87087F803A039463E20DB
:1013200004F0C6F94FF4FA6004F0E6FC04213846F4
:1013300000F03EFD287085F801900222A7F13301EC
:10134000602004F0B5F94FF4FA6004F0D5FC0222F5
:101350007F493E2004F0EEF87D484178FF29D2D045
:101360004FF4FA6808202070932060701D2078499F
:10137000A07003222E313E2004F09AF9404604F07A
:10138000BBFC734803212E3000F012FD2870704919
:101390006E700222891E602004F08AF9404604F033
:1013A000ABFC02226A493E2004F0C4F86848417848
:1013B000FF29D7D02C46564645465F20387087F81F
:1013C00001B06349BE70D846FE70042231313E2020
:1013D00004F06EF9284604F08FFC5D48042131309A
:1013E00000F0E6FC20705A4984F801900222891E20
:1013F000602004F05DF9284604F07EFC0222544986
:101400003E2004F097F852484178FF29D5D0BA46DB
:10141000CB464FF00709474673218AF800108AF837
:101420000170D0218AF8021049498AF803900422F9
:1014300031313E2004F03CF9284604F05DFC44487C
:101440000421313000F0B4FC2070414984F801B02F
:101450000222891E602004F02BF9284604F04CFC7F
:1014600002223B493E2004F065F839484178FF29C3
:10147000D2D083464FF040094FF0410A4FF00808A0
:101480003348A82152300622017091214170F22187
:10149000817080F803A0EF21017180F8059001466A
:1014A0003E2004F005F9284604F026FC28480621D1
:1014B000523000F07DFC2070254984F80180022222
:1014C000891E602004F0F4F8284604F015FC02227E
:1014D0001F493E2004F02EF89BF80100FF28CFD0D2
:1014E000A0461B4CB146DFF86CB0123C4FF40056DE
:1014F0004FEA070A164988F800A088F801900222EE
:10150000891E3E2004F0D4F8284604F0F5FB0122A1
:1015100031465F46584601F0C2FD284604F0ECFB18
:10152000FFF75AF80090BDF80000208300223146F2
:10153000384601F0B4FD284604F0DEFBFFF74CF816
:101540000090BDF800002083C007D3D1BDE8FE8F16
:10155000120000200010014010B502220E49642044
:1015600003F0E8FF0C480178407801EB00204207C7
:10157000094800F13A00A0F14C01026842F0006213
:1015800004D542F090520260032003E022F0905212
:1015900002600220487010BD12000020122101EBF1
:1015A000400010B5C0B20222044903F0C3FF034853
:1015B0000178407801EB002080B210BD12000020BD
:1015C00010B5022205493A2003F0B4FF0348017820
:1015D000407801EB002080B210BD00001200002016
:1015E00010B5022205497F2003F0A4FF03480178CB
:1015F000407801EB0020C0B210BD000012000020B6
:1016000010B502220749362003F094FF05480178FF
:10161000407801EB002000EB80004FF6FF7101EAFB
:10162000400010BD1200002010B502220549032021
:1016300003F080FF03480178407801EB0020C0B23E
:1016400010BD00001200002010B50222074934200E
:1016500003F070FF05480178407801EB002000EBB3
:1016600080004FF6FF7101EA400010BD120000201B
:1016700004481221022201700021417001463E20DF
:1016800004F016B81000002004489A2102220170CC
:101690000021417001463E2004F00AB810000020ED
:1016A00070B50024FFF79CFF174D6873C00701D188
:1016B000FEF7A4FFFFF794FF6873C00723D0022052
:1016C00068701148114D4C30016821F0805141F093
:1016D00000610160FFF774FF25F81400322001F06B
:1016E00091FB641CE4B2072CF4D3084D00240E35A2
:1016F000FFF766FF25F81400322001F083FB641C1D
:10170000E4B20E2CF4D370BD000000206A05002066
:1017100070B50024FFF764FF194D6873400701D4CA
:10172000FEF784FFFFF75CFF6873400727D50220B0
:10173000687013484C30016821F0805141F000611D
:1017400001604FF47A7001F05DFB0E4DFFF738FF3A
:1017500025F81400322001F055FB641CE4B2072C7C
:10176000F4D3084D00240E35FFF72AFF25F81400A6
:10177000322001F047FB641CE4B20E2CF4D370BDA0
:10178000000000206A05002010B5FEF75BFFFFF7A0
:1017900027FF084901F10D044873400701D5FEF702
:1017A00045FF2078C00701D0FEF728FFBDE81040B4
:1017B000FEF748BF0000002010B5FFF711FF0949F0
:1017C000487300070CD507481C2110300222017015
:1017D000002141700146BDE810403E2003F068BF83
:1017E00010BD00000000002010B5FFF7F9FE094908
:1017F000487300070CD407481C21103002220170E6
:10180000002141700146BDE810403E2003F050BF6A
:1018100010BD0000000000203EB50423CDE90013F8
:101820001E220749029202460988102389B2054800
:1018300001F004FD0446012001F0E4FA20463EBD1B
:1018400084000020CC0000203EB50E4B0A0EDA705A
:101850000A0C9A700A0A5A7019701E210422009309
:10186000CDE90121A3F1080102460988102389B2BC
:10187000054801F00BFE0446062001F0C3FA20469D
:101880003EBD00008C000020CC00002013B584B0C9
:101890001E23012205A98DE80E00074902461023E8
:1018A0000988064889B201F0F1FD0446062001F0DE
:1018B000A9FA06B0204610BD84000020CC0000200C
:1018C000F0B500254E4F8BB02C464FF4804600BF3C
:1018D000FFF7BAFE052C2AD9012231463C4638468C
:1018E00001F0DDFB4748016841F001010160002083
:1018F000FFF7AAFF01223146204601F0D0FB414DFF
:101900004C3D0121204601F0C5FB18B3E87A61285F
:1019100020D03DA1684604F00BF96846FEF724FC90
:1019200082B2642369463C4803F00AF8E9E70028DC
:101930004AD03AA1684604F0FBF86846FEF714FC6A
:1019400082B264236946344802F0FAFF6D1CEDB29E
:10195000062DBDD300223146384601F0A0FB0122FE
:10196000D4032146384601F09AFB4FF4FA75284615
:1019700001F048FA00222146384601F090FB284643
:1019800001F040FA01222146384601F088FB284642
:1019900001F038FA00222146384601F080FB284643
:1019A00001F030FA01222146384601F078FB284642
:1019B00001F028FA00222146384601F070FB284643
:1019C00001F020FA0BB0F0BD01223146384601F09B
:1019D00066FB00254FF47A7001F014FA224613A139
:1019E000684604F0A5F86846FEF7BEFB82B26423A1
:1019F0006946094802F0A4FF641CE4B268E70000ED
:101A0000001001404C0000204251204E4F5420460F
:101A10004F554E44000000005C02002044455649EA
:101A2000434520464F554E444544000044455649E1
:101A30004345204E4F5420464F554E4445442025A3
:101A400064000000FEE7000070B5324D05F14C0463
:101A5000687860B1012849D002284BD0032851D0C2
:101A6000206840F4004020600420287070BD2A4E99
:101A70000122D103304601F012FB00224FF48041D5
:101A8000304601F00CFB00227114304601F007FBD8
:101A9000206820F4804020F0C05020F4805040F4B2
:101AA0000050206003F008FB024604F05DFB104488
:101AB0000128DBD90020A8732068002220F47C00D4
:101AC00020F03C0020F0006020F4033020F440704F
:101AD00020F0806040F0805020601021304601F0FE
:101AE000DEFAFEF797FD0120687070BDBDE870401A
:101AF000FFF7D6BDFFF730FD00F082FCBDE8704077
:101B000000F00CB84FF4967001F07CF9BDE870401D
:101B1000FFF722BD00000020001001402DE9F35F17
:101B20005349824600250878C2067DD520F0100072
:101B3000A1F10A0408702079A946072801D184F888
:101B4000049060790E2801D184F80590FFF738FDE4
:101B500001464848227900F10E0B4FEA000820F8B0
:101B6000121063792BF8131038F81500FEF719FCE2
:101B700032463B46FEF7FFFA6D1CEDB206460F46B5
:101B8000072DF1D300223C4BFEF79CFB05460E4689
:101B900000223A4BFEF712FC01D2012700E0002799
:101BA0000022374B50460199FEF720FC01D201205C
:101BB00000E00020DFF8B8A007420AF1420A0CD08A
:101BC000DAF80010012241F40031CAF800101021A7
:101BD0002C4801F064FA84F8019000222A4B284630
:101BE0003146FEF703FC0ED2DAF80010012241F074
:101BF0001001CAF800101021224801F050FAFFF736
:101C0000C3FD84F8019000252E462F464FEA0B08AD
:101C100038F81700FEF7C5FB2A463346FEF7ABFA45
:101C200005460E467F1C00E020E0FFB20E2FEFD3EA
:101C30000022164BFEF746FB0022134BFEF7D6FBA5
:101C40000ED2DAF80010012241F01001CAF800109B
:101C500010210C4801F023FAFFF796FD84F801905B
:101C60006079401C60712079401C2071BDE8FC9FA8
:101C70000A0000206A05002000001C400000794096
:101C80000068D040001001400088B34000002C40A4
:101C90002DE9F05F404900240878C2067AD520F08B
:101CA0001000A1F10A070870B879A146072801D1F0
:101CB00087F80690F8790E2801D187F80790FFF78A
:101CC0007FFC3649BB79B84621F81300FA7901F157
:101CD0000E0323F81200314830F81400FEF761FBC0
:101CE0002A463346FEF747FA2B4F641CE4B24237CC
:101CF000DFF8ACB005460E46072CECD30022294B8A
:101D0000FEF7E0FA0022284BFEF758FB0CD23868A9
:101D1000012240F0200038601021584601F0BFF940
:101D2000FFF732FD88F801900024DFF870A0254607
:101D300026460AF10E0A00BF3AF81600FEF731FBFC
:101D400022462B46FEF717FA761CF6B204460D46DD
:101D50000E2EF1D30022154BFEF7B4FA0022124BDF
:101D6000FEF72CFB0CD23868012240F020003860CE
:101D70001021584601F093F9FFF706FD88F801900D
:101D800098F80710491C88F8071098F80610491CA5
:101D900088F80610BDE8F09F0A0000206A050020C0
:101DA0000010014000001C40E08EED4000002C407F
:101DB00010B500231A4604E0845C521C2344DBB2B5
:101DC000D2B28A42F8D3D843C0B210BD70B5334DF9
:101DD00005F14C04687850B1012849D0022856D04A
:101DE000206840F4004020600420287070BD2C4E14
:101DF00000224FF40041304601F051F900224FF427
:101E00008041304601F04BF901225103304601F088
:101E100046F922480A30017841F006010170206835
:101E200020F4405020F0C05040F48040206003F087
:101E300019FA014604F098F90142D7D00020A8739E
:101E4000206820F47C0020F03C0020F0006020F4AA
:101E5000033020F4407040F080502060FEF7DAFB41
:101E600000221021304601F01AF90120687070BD7F
:101E7000FFF7BAFC4FF47A7000F0C4FFFFF79CFC48
:101E8000FFF746FCBDE870400A2000F0BBBF00F041
:101E900095F8BDE87040FFF7FBBE00000000002091
:101EA00000100140014800F0D5BE000034070020BA
:101EB00070470000F0B58BB01A490020FFF7ACFC6A
:101EC000184D194C4FF480462878800723D50122FD
:101ED0003146204601F0E3F8A5F14C0701212046E8
:101EE00001F0D8F880B1F87A61280DD00FA16846CA
:101EF00003F01EFE6846FEF737F982B26423694696
:101F0000104802F01DFDE9E7286820F002010020DA
:101F10002960FFF799FC00223146204601F0BFF806
:101F20000BB0F0BD4C00002000100140454D455263
:101F300047414E5920574153204445544543544549
:101F4000440000005C02002070B5194E01221021EF
:101F5000304601F0A4F801229103304601F09FF8C9
:101F6000144D286840F002002860FFF75DFBA5F1E2
:101F70004C04C1B221730520FFF788FC00202968BA
:101F8000FFF762FC4FF47A750121304601F082F8C8
:101F900048B1E07A612806D0074801F06CFB28467A
:101FA00000F030FFF0E7012020700020607070BD6D
:101FB000001001404C000020200100202DE9F84FC6
:101FC000FE48002601784A0771D521F00401A0F1EE
:101FD0000A050170A878B246072801D185F802A049
:101FE000E8780E2801D185F803A00120FFF7D6FA82
:101FF000F34FA97842F2FC194FF4616827F81100F9
:1020000007F26444484505D927F811802078401C20
:10201000207001E084F800A037F81120DFF8A0B3A9
:10202000E9780BF1E00B02202BF81120FFF7B6FA4C
:10203000A978484507EB4101C88105D9A1F80E8070
:102040006078401C607001E084F801A0DC48EA7808
:10205000E03000EB4200C98981830320FFF79EFA3C
:10206000AA78CB4607EB42015845888305D9A1F8E9
:102070001C80A078401CA07001E084F802A0B94642
:10208000CF4FEA78E03707EB4200898B01871020B9
:10209000FFF784FAAA78584509EB4201A1F8D2006B
:1020A00006D9A1F8D280E07B401CE07302E0A5E1F4
:1020B00084F80FA0C248EB78E03000EB4300B1F8A1
:1020C000D210A0F8A4112878A15D032906D9BB4835
:1020D0004230016841F0807101600420761CF6B244
:1020E000102EF1D3B5490A390870C87B032809D9E5
:1020F00001F14C00016841F080710160AF4904209A
:102100000A3908704FF000090024AD48C9EBC90135
:1021100026462746A046254600EB410BCDF8001089
:102120003BF81500FEF73DF93A464346FEF723F823
:102130006D1CEDB207468846072DF1D3A048002557
:102140000099E03000EB810B3BF81500FEF729F910
:1021500022463346FEF70FF86D1CEDB204460E46DC
:102160000E2DF1D30022974BFEF7ACF806468B46B6
:102170000022954B38464146FEF7A4F8DFF84C8222
:1021800004460D4600224346FEF730F901D20127EE
:1021900000E000270022434630465946FEF726F964
:1021A00001D2012000E00020074327D0DFF8208281
:1021B00001221021404600F072FFFFF7E5FA7F4E42
:1021C00000224236A6F14C073068824B40F00400F2
:1021D000306087F801A020462946FEF707F94CD267
:1021E00001229103404600F05AFF306840F48070AD
:1021F00030600420387087F801A03EE0DFF8D88115
:102200000022434620462946FEF7D8F801D201278E
:1022100000E000270022434630465946FEF7CEF83C
:1022200001D2012000E00020074326D0DFF8A08182
:1022300001221021404600F032FFFFF7A5FA5F4F60
:1022400000224237A7F14C063868644B40F0080082
:10225000386086F801A020462946FEF7AFF80CD278
:1022600001229103404600F01AFF386840F40070E4
:1022700038600420307086F801A009F1010000F0F8
:10228000FF09B9F1100FFFF43FAFFFF7DDF94B493C
:10229000534C0A3948F260638A78984224F8120055
:1022A00007D94FF4615024F81200C87B401CC87352
:1022B00001E081F80FA08846002598F8030034F863
:1022C00012102E4624F810104FEA050734F81700B4
:1022D000FEF767F82A463346FDF74DFF7F1CFFB235
:1022E000DFF80091DFF800B105460E46072FEDD369
:1022F0000022354BFDF7E6FF05460E4600224B4611
:10230000FEF774F801D2012700E0002700225B46A7
:1023100028463146FEF752F801D2012000E00020A5
:1023200007430ED001221021294800F0B8FEFFF724
:102330002BFA22484230016841F08061016088F840
:1023400001A000273E463D4634F81500FEF729F867
:102350003A463346FDF70FFF6D1CEDB207460E46B9
:102360000E2DF1D30022174BFDF7ACFF04460D46AE
:1023700000224B46FEF73AF801D2012600E0002683
:1023800000225B4620462946FEF718F801D20120BC
:1023900000E0002006430ED0012210210C4800F07E
:1023A0007EFE06484230016841F080610160FFF71F
:1023B000EBF988F801A098F8031017E00A00002054
:1023C000A002002000002C4000001C4000CCB040C7
:1023D0000010014000FEB0400000A9400070A7407E
:1023E0004005002000CCD0400070C740491C88F850
:1023F000031098F80210491C88F80210BDE8F88F05
:102400002DE9FC5FFE4900240878420772D520F0D0
:102410000400A1F10A050870287AA246072801D114
:1024200085F808A0687A0E2801D185F809A0012056
:10243000FFF7B4F8F3492A7A42F2FC194FF46167C6
:1024400021F8120001F26446484505D921F81270BE
:102450003078401C307001E086F800A0884631F8E2
:102460001210DFF8A0B36A7A0BF1E00B02202BF810
:102470001210FFF793F82A7A484508EB4201C88109
:1024800004D9CF817078401C707001E086F801A0FB
:10249000DC486A7AE03000EB4200C989818303207E
:1024A000FFF77CF82A7ACB4608EB4201584588832F
:1024B00004D98F83B078401CB07001E086F802A088
:1024C000C146DFF840836A7A08F1E00808EB420071
:1024D000898B01871020FFF761F82A7A584509EBAC
:1024E0004201A1F8D20006D9A1F8D270F07B401CBD
:1024F000F07302E081E186F80FA0C2486B7AE03009
:1025000000EB4300B1F8D210A0F8A4112878315D97
:10251000032906D9BA484230016841F08071016050
:102520000420641CE4B2102CF1D3B5490A390870B8
:10253000C87B032809D901F14C00016841F0807182
:102540000160AF4904200A3908704FF000090024E7
:10255000AC48C9EBC90125462646A046274600EBF4
:10256000410B00913BF81700FDF71BFF3246434635
:10257000FDF701FE7F1CFFB206468846072FF1D308
:10258000A04800270099E03000EB810B3BF81700D2
:10259000FDF707FF22462B46FDF7EDFD7F1CFFB23E
:1025A00004460D460E2FF1D30022974BFDF78AFE0D
:1025B00004468B460022954B30464146FDF782FE8D
:1025C000DFF84C8206460D4600224346FDF70EFF1B
:1025D00001D2012700E00027002243462046594649
:1025E000FDF704FF01D2012000E00020074327D0BF
:1025F000DFF8208201221021404600F050FDFFF755
:10260000C3F87F4C00224234A4F14C072068824B6F
:1026100040F00400206087F801A030462946FDF70D
:10262000E5FE4CD204203870010387F801A0012296
:10263000404600F034FD206840F4807020603EE0A9
:10264000DFF8D8810022434630462946FDF7B6FE22
:1026500001D2012700E000270022434620465946C8
:10266000FDF7ACFE01D2012000E00020074326D098
:10267000DFF8A08101221021404600F010FDFFF795
:1026800083F85F4F00224237A7F14C043868644B4F
:1026900040F00800386084F801A030462946FDF774
:1026A0008DFE0CD201229103404600F0F8FC386800
:1026B00040F4007038600420207084F801A009F113
:1026C000010000F0FF09B9F1100FFFF440AFFEF771
:1026D000BBFF4B49534D0A3948F260630A7A98426E
:1026E00025F8120007D94FF4615025F81200C87B75
:1026F000401CC87301E081F80FA08846002798F8B5
:10270000090035F812103E4625F810104FEA07046C
:1027100035F81400FDF745FE3A463346FDF72BFD2C
:10272000641CE4B2DFF80091DFF800B107460E4602
:10273000072CEDD30022354BFDF7C4FD04460E46B1
:1027400000224B46CDE90001FDF750FE01D20127E2
:1027500000E0002700225B4620463146FDF72EFEB2
:1027600001D2012000E00020074308D001221021FF
:10277000284800F094FCFFF707F888F801A000262D
:102780003746344635F81400FDF70BFE32463B461B
:10279000FDF7F1FC641CE4B206460F460E2CF1D3A3
:1027A0000022194BFDF78EFD04460D4600224B46D4
:1027B000FDF71CFE01D2012600E0002600225B4648
:1027C00020462946FDF7FAFD01D2012000E0002055
:1027D000064308D0012210210E4800F060FCFEF7ED
:1027E000D3FF88F801A098F80910491C88F809104F
:1027F00098F80810491C88F80810DDE9000117E076
:102800000A000020A002002000002C4000001C4014
:1028100000CCB0400010014000FEB0400000A940D4
:102820000070A7404005002000CCD0400070C74099
:10283000BDE8FC9F012000F031BB7047F8B50024D3
:10284000009490F824202546012A12D0012280F815
:1028500024204A681F23072A0DD20668776B521E70
:1028600002EB820293409F430B6893401F437763C0
:1028700019E00220F8BD06680D2A0AD2376BD21F74
:1028800002EB820293409F430B6893401F433763E0
:1028900009E0F76A0D3A02EB820293409F430B680E
:1028A00093401F43F7620A68072306680A2A0AD37F
:1028B000F7680A3A02EB420293409F438B689340C9
:1028C0001F43F76008E0376902EB420293409F43E1
:1028D0008B6893401F4337610A68102A01D0112A80
:1028E00020D1124B02689A4217D193681B0219D467
:1028F000936843F4000393600968102912D10C49CE
:102900000C4A0968B1FBF2F101EB8101490000E0DA
:10291000491E00910029FBD104E0816A41F02001A9
:102920008162012480F824502046F8BD0024014033
:102930008000002040420F002DE9F0414FF00007D9
:1029400004003D467ED0A06A002628B9E66284F8DD
:102950002460204600F07EF82046FDF705FEA16ABF
:10296000C90600D420B1A06A40F01000A06269E05E
:10297000A16A21F4885141F00201A1626268E16913
:10298000237B0A4347EA43010A43A1684FF4807757
:10299000B94209D0012907D05FF0000194F814C0B2
:1029A000BCF1010F02D00AE03946F7E7F3B1A36AA0
:1029B00043F02003A362E36A43F00103E362236868
:1029C000D3F804C02CF4694C4CEA010CC3F804C0E1
:1029D00021688B68DFF870C003EA0C0313438B6037
:1029E000A168B9420BD0012909D00CE0DFF85CC026
:1029F000A3690CEB43330B4343F40061DFE7218A07
:102A00000D05A5F580152168CB6A23F470032B43CF
:102A1000CB62216889680E4B1940914208D1E66269
:102A2000A16A21F0020141F00101A162BDE8F0813B
:102A3000A06A20F0020040F01000A062E06A40F0BE
:102A40000100E0620120F1E7FDF7E1FF00E0FFFF98
:102A5000FE0E1FFF70B586B0002506460095019555
:102A6000029503950068294988424CD12849886914
:102A700040F400708861886900F4007004908869EF
:102A800040F010008861886900F0100004908869A7
:102A900040F004008861886900F0040004908869AF
:102AA00040F0080088618869032400F00800049061
:102AB0000E20CDE900046946164800F0FBF90F200E
:102AC000CDE900046946144800F0F4F90220CDE98C
:102AD00000046946114800F0EDF9124C1048C4E9B1
:102AE00000058020C4E90250800020618000606100
:102AF0002020C4E90605204600F056F908B1FFF78A
:102B00009CFE3462666206B070BD00000024014085
:102B1000001002400010014000080140000C01407C
:102B2000080002403407002010B5040002D060798C
:102B300010B106E0012010BD00202071204600F0F9
:102B400005F801206071002010BD000008B5006884
:102B50000649884208D10648416941F04001416177
:102B6000406900F04000009008BD000000300240C5
:102B70000010024010B590F821100022022905D063
:102B80000421816380F82020012010BD01680B68BA
:102B900023F00E030B6001680B6823F001030B6048
:102BA00090F84030C46B012101FA03F3636080F8B0
:102BB000211080F82020104610BD000010B590F8BC
:102BC00021100024022903D00421816301243DE067
:102BD00001680A6822F00E020A6001680A6822F0A1
:102BE00001020A601A4A0168914201D1012121E0E3
:102BF000174A1432914201D110211BE0144A2832A5
:102C0000914201D1891515E0114A3C32914201D11E
:102C100089140FE00E4A5032914202D14FF48031B4
:102C200008E00B4A6432914202D14FF4801101E076
:102C30004FF08071064A083A5160012180F8211056
:102C4000002180F82010416B01B18847204610BD5B
:102C5000080002402DE9F05FC16B0C6801680B6849
:102C6000D0F840C0042202FA0CF2494DDFF824A14A
:102C7000494E4A4FDFF828B1DFF828E122422CD034
:102C80005A072AD50A68920603D40A6822F0040279
:102C90000A600168A94201D1042219E0514501D11D
:102CA000402215E0B14202D14FF4806210E0B942F7
:102CB00002D14FF480420BE0594502D14FF48022FB
:102CC00006E0714502D14FF4800201E04FF08062CE
:102CD0002F4908394A60C16A3BE04FF0020808FA00
:102CE0000CF818EA040F4FF000094FF0010235D03C
:102CF0005FEA837832D50B689B0605D40B6823F016
:102D00000A030B6080F821200168A94201D1022248
:102D100019E0514501D1202215E0B14202D14FF412
:102D2000007210E0B94202D14FF400520BE0594555
:102D300002D14FF4003206E0714502D14FF4001287
:102D400001E04FF00072124908394A6080F8209083
:102D5000816A00291AD0BDE8F05F0847082505FA06
:102D60000CF5254212D01B0710D50B6823F00E037B
:102D70000B6090F84010C36B02FA01F15960826356
:102D800080F8212080F82090016BE2E7BDE8F09FF9
:102D9000080002401C000240300002404400024093
:102DA000580002406C00024030B528B308C81349EF
:102DB00014221944B1FBF2F18900C1631049816307
:102DC000022141771A6843F6F0718A43D0E9001472
:102DD0002143D0E902452C4321430469214344693E
:102DE0002143846921431143196000214163012279
:102DF00042770177084630BD012030BDF8FFFDBFA6
:102E00000000024070B5044600F04EF90546601C13
:102E100002D004480078044400F046F9401BA04268
:102E2000FAD370BD740000202DE9F0410122102179
:102E3000184800F034F9FEF7F7FBC1B2164AC1F3A7
:102E4000001302F14C0511732868C1F3401463F3B9
:102E50001450C1F3801664F3555066F39650CF08B2
:102E600067F392408F0867F3D340CF0967F3D750D9
:102E700023433343286053EAD11007D0907B401C92
:102E8000C0B29073022801D9012010700020507048
:102E9000BDE8F0810010014000000020044910B599
:102EA0000A68024202D00860FFF7BEFF10BD0000B2
:102EB000140401402DE9F84FDFF8B891002409F11E
:102EC000040A0AF1040B23460F270BF1040EC9E094
:102ED0000125A5402A40AA427DD1674ED1F804C001
:102EE000ACEB0608B44532D014DCBCF1030F3AD089
:102EF00009DCBCF1000F2AD0BCF1010F1CD0BCF1E1
:102F0000020F31D11DE0BCF1110F17D0BCF1120F2F
:102F10002AD119E0B8F5881F19D006DCB8F5803F32
:102F200015D0B8F5801F1FD111E0B8F5001F0ED0E5
:102F3000B8F5041F18D10AE0CB6815E0CB681B1D5B
:102F400012E0CB6808330FE0CB680C330CE08B68E1
:102F50002BB1012B4FF0080303D0456104E004239B
:102F600002E0056100E00023FF2A01D8064601E0E7
:102F700000F104064FEA840501D9A5F12005D6F831
:102F8000008007FA05FC28EA0C0803FA05F548EA70
:102F90000508C6F800804D68ED0062D5374DAE6972
:102FA00046F00106AE61AD6924F0030605F00105A7
:102FB0000095334D06EB050CDCF80850A607360FDC
:102FC00007FA06F825EA0805DFF8B880404503D17E
:102FD0004FF0000817E044E0DFF8AC80404502D134
:102FE0004FF001080FE0DFF8A480404502D14FF018
:102FF000020808E0DFF89880404502D14FF003084E
:1030000001E04FF0040808FA06F848EA0508CCF891
:1030100008804D68D9F80060ED034D4601D5164390
:1030200000E096432E604D68DAF80060AD03554627
:1030300001D5164300E096432E604D68DBF8006032
:10304000ED025D4601D5164300E096432E604D68C3
:10305000DEF80060AD02754601D5164300E09643E8
:103060002E60641C0D682A46E5407FF431AFBDE850
:10307000F88F000000040140000011100010024011
:103080000000014000080140000C01400010014018
:10309000001401408068084000D0012070470AB148
:1030A000016170470904FBE7014880687047000030
:1030B0007400002070B5040025D094F83D00002570
:1030C00020B984F83C50204600F078FA242084F897
:1030D0003D002068016821F001010160206801685D
:1030E00041F4004101602068016821F40041016061
:1030F00000F06CFC4D4A6168914201D84C4900E0F7
:103100004C49884201D2012070BD4B492368B0FB75
:10311000F1F15E6826F03F060E435E6063689342FD
:1031200006D94FF4967359434FF47A73B1FBF3F118
:103130002368491C1E6A26F03F0631431962616804
:10314000914210D84900401EB0FBF1F2521CC2F36C
:103150000B02042A01D2042022E0B0FBF1F0401C53
:10316000C0F30B001CE0A268F2B301EBC10303EB58
:103170000116431EB3FBF6F35B1C43F480431B05AF
:1031800049D092B301EBC10202EB0111401EB0FB2A
:10319000F1F0401CC0F30B0040F4804040F40040CC
:1031A0002168CA694CF6FF739A431043C861D4E999
:1031B000071001432068026822F0C0021143016039
:1031C000D4E9030101432068826848F2FF339A433F
:1031D00011438160D4E9050108432168CA6822F0DF
:1031E000FF021043C86001E00EE016E020680168AD
:1031F00041F0010101602564202084F83D00256331
:1032000084F83E50002070BD01EB4106431EB3FB25
:10321000F6F35B1CB3E70120C2E701EB4101401E5E
:10322000B0FBF1F0401CC0F30B00B7E7A086010033
:1032300080841E0000093D0040420F002DE9FF4F31
:1032400083B00025DDE910799A4693460446DDF8FF
:1032500048800095FFF728FF064694F83D00202897
:103260007CD11923012285492046009601F0D2FC29
:103270000028F5D194F83C0001286FD0012084F893
:103280003C0020680168C90703D1016841F00101D1
:1032900001602068016821F400610160222084F847
:1032A0003D00402084F83E0025646762A4F82A901F
:1032B000608D20857248E062CDE9008653465A460B
:1032C0002046049901F0AEFB00287DD1208DDFF867
:1032D000B491202768B1012814D002282068016821
:1032E0001ED041F4806101602068416980690090CE
:1032F000B6E02068416981690091016841F400717C
:103300000160ADE02068016821F48061016072B65F
:103310002068416981690091016841F400710AE007
:1033200041F40061016072B62068416981690091D1
:10333000016821F48061016062B691E0032868D8D9
:1033400001280CD0022843464FF00002494620468F
:1033500000960FD001F05EFCB0BB10E08BE032466F
:103360004146204601F0D5FC70BB20680069616AC7
:1033700008706CE001F04EFC30BB72B634E020689F
:10338000016821F48061016072B620680069616A99
:103390000870606A401C6062208D401E2085608D30
:1033A000401E6085384846F2A8110068B0FBF1F075
:1033B000C0EBC00000EB80000090401E009008D0E1
:1033C00020684069C04300E029E040070CD5009820
:1033D000F3E744F8305F6773A573206940F020007D
:1033E000206162B625731AE02068016841F400711B
:1033F000016020680069616A0870606A401C606250
:10340000218D491E2185618D491E618562B6216825
:103410001BE032464146204601F07BFC18B10120FA
:1034200007B0BDE8F08F20680069616A0870606AC3
:10343000401C6062218D491E2185618D491E618578
:1034400021684A69D24352070AD409690170606A47
:10345000401C6062208D401E2085608D401E60856E
:10346000208D00287FF46AAF84F83D7084F83E50C8
:1034700084F83C50D4E70220D2E70000020010009C
:103480000000FFFF04000100800000202DE9FF4F35
:1034900083B09A46DDE9119793460446DDF84080F3
:1034A000FFF702FE054694F83D0020287FD119233E
:1034B000012240492046009501F0ACFB002876D15E
:1034C00094F83C00012872D0012084F83C00206868
:1034D0000168C90703D1016841F00101016020685A
:1034E000016821F400610160212084F83D00402042
:1034F00084F83E0000262664C4F82480A4F82A90AC
:10350000608D20852C48E062CDE9007553465A460F
:103510002046049901F004FB70B930E02A46394690
:10352000204601F029FC58B1206C042804D1206801
:10353000016841F400710160012007B0BDE8F08F1F
:10354000606A216800780861606A401C6062218DB1
:10355000491E89B22185628D521E62852268536997
:10356000DB435B070BD469B100781061606A401CD3
:103570006062208D401E2085608D401E6085208DFC
:103580000028CBD12A463946204601F01DFB0028F1
:10359000CAD154F83D0B016841F40071016020204C
:1035A00004F81E09E67766770020C6E7FFE70220E9
:1035B000C3E70000020010000000FFFF10B586B056
:1035C0000021009101910291039100681049884205
:1035D0001BD1104CA06940F00800A061A0696946A9
:1035E00000F0080004904FF4406000901220019019
:1035F000032003900848FFF75DFCE06940F4800079
:10360000E061E06900F48000049006B010BD0000A5
:103610000058004000100240000C014070B504004A
:1036200011D021684CF6CC400860216845F2555015
:103630000860D4E9000141602168A0688860FFF754
:1036400033FD05460DE0012070BD00BFFFF72CFDE6
:10365000401B272805D92068C068800701D00320B7
:1036600070BD2068C0688007F0D121684AF6AA20A2
:103670000860002070BD00684AF6AA2101600020A1
:1036800070470000024881680278114481607047E9
:1036900074000020074810B5016841F01001016076
:1036A000032000F075F8002000F006F800F024F880
:1036B000002010BD0020024070B50D4D04464FF4AF
:1036C0007A712878B1FBF0F00A490968B1FBF0F093
:1036D00000F03AFD48B9102C07D200222146501EB6
:1036E00000F036F800206C6070BD012070BD000055
:1036F00074000020800000200C4808B5816941F06A
:1037000001018161816901F001010091C16941F00C
:103710008051C161C06900F0805000900448416848
:1037200021F0E06141F00071416008BD00100240ED
:1037300000000140002809DB00F01F020121914038
:103740004009800000F1E020C0F80011704700003F
:10375000F0B40E4B1B680C46C3F30223C3F10705FC
:10376000042D00D90425191D072901D2002300E0EA
:10377000DB1E012606FA05F1491E214099409E40B4
:10378000761E16403143F0BC02F0E6B90CED00E0C5
:10379000064900F0070208684FF6FF03184040EAA8
:1037A0000220034A10430860704700000CED00E05F
:1037B0000000FA052DE9F84305460078354CC007AE
:1037C00054D0E0690026C00008D4E06940F0805081
:1037D000E061E069012600F0805000902E48016809
:1037E000C90512D40168804641F480710160FFF779
:1037F0005BFC074605E000BFFFF756FCC01B6428D2
:1038000023D8D8F80000C005F6D5206A10F440701F
:1038100021D0A98801F4407181421CD0206A1F493F
:10382000012220F440700A6000220A602062C00772
:1038300011D0FFF739FC074641F2883808E000BF95
:10384000FFF732FCC11B414502D90320BDE8F883D4
:10385000206A8007F4D5206A696820F44070084324
:1038600020621EB1E06920F08050E0612878800776
:1038700005D56068A96820F4404008436060287856
:10388000C00605D56068E96820F4800008436060E0
:103890000020DBE70010024000700040400442427C
:1038A0002DE9F0470F46050061D0434E306800F027
:1038B0000700B84209D2306820F007003843306072
:1038C000306800F00700B84251D128683B4C8107AE
:1038D00012D5400703D5606840F4E0606060287846
:1038E000000703D5606840F4605060606068A968B4
:1038F00020F0F000084360602878C00728D068688E
:10390000012810D02168022810D0890700292EDA5A
:10391000616821F0030101436160FFF7C5FB804648
:1039200041F288390DE021688903EFE78901EDE76D
:10393000FFF7BAFBA0EB0801494502D90320BDE817
:10394000F0876068696800F00C00B0EB810FEFD180
:10395000306800F00700B8420BD9306820F007004B
:1039600038433060306800F00700B84201D00120D1
:10397000E5E72878400705D56068E96820F4E0604D
:10398000084360602878000706D56068296920F43C
:10399000605040EAC100606000F038F86168084A91
:1039A000C1F30311515CC84006490860064800682D
:1039B000FFF782FE0020C2E7002002400010024014
:1039C0006C61000880000020780000200448054950
:1039D00000684968044AC1F30221515CC84070473D
:1039E00080000020001002407C6100080448054966
:1039F00000684968044AC1F3C221515CC84070475D
:103A000080000020001002407C61000812A185B0F7
:103A10000FC98DE80F0014A0144A00680490516883
:103A2000134801F00C03042B10D0082B0ED1C1F366
:103A30008343C9031DF803000AD5516804AAC1F3E2
:103A40004041515C0A4A5043B0FBF1F005B0704769
:103A500008494843FAE7000002030405060708097D
:103A60000A0B0C0D0E0F1010010200000010024096
:103A700000127A0000093D002DE9F84F040070D0D3
:103A80002078C04DC00749D06868C0F38100012884
:103A900007D06868C0F38100022809D16868C003B4
:103AA00006D52868800339D560680028E7D035E05E
:103AB0006068B0F5803F0BD010B1B0F5A02F11D0E9
:103AC000286820F480302860286820F4802002E0F4
:103AD000286840F480302860606890B1FFF7E4FA0D
:103AE00006460AE0286840F480202860F0E700BF1E
:103AF000FFF7DAFA801B642873D828688003F7D5AB
:103B00000CE0FFF7D1FA064605E000BFFFF7CCFA5C
:103B1000801B6428F0D828688003F7D420789A4E58
:103B200080074FF001094FF0000839D5686810F0A0
:103B30000C0F07D06868C0F38100022809D16868BB
:103B4000C00306D42868800714D52069012808D14D
:103B500010E02069B0B1C6F80090FFF7A5FA07465B
:103B600005E00AE1FFF7A0FAC01B0228C4D82868C4
:103B70008007F7D52868616920F0F80040EAC100A5
:103B800028600DE0C6F80080FFF78EFA074604E0D3
:103B9000FFF78AFAC01B022823D828688007F7D4C9
:103BA000207800072CD57948A169D9B1C0F80090D8
:103BB000FFF77AFA074604E0FFF776FAC01B0228FF
:103BC0000FD8686A8007F7D571484FF4FA5100683A
:103BD000B0FBF1F0009000BF0098411E0091FAD2B6
:103BE0000EE080E0C0F80080FFF75EFA074604E0D0
:103BF000FFF75AFAC01B022875D8686A8007F7D405
:103C00002078400760D5E8690027C00008D4E8693B
:103C100040F08050E861E869012700F08050009092
:103C20005C480168C90513D40168834641F480717A
:103C30000160FFF739FA824606E000BFFFF734FA69
:103C4000A0EB0A0064284ED8DBF80000C005F5D5CB
:103C5000E06801280AD008B1052813D0286A20F0AE
:103C600001002862286A20F0040002E0286A40F07F
:103C700001002862E06841F2883B98B1FFF714FA2E
:103C800082460BE0286A40F004002862EEE700BF9D
:103C9000FFF70AFAA0EB0A0159455AD8286A8007AB
:103CA000F6D50CE0FFF700FA824605E0FFF7FCF9D5
:103CB000A0EB0A0159454CD8286A8007F6D41FB1F9
:103CC000E86920F08050E861E06988B36968C1F371
:103CD0008101022944D00228C6F8608004D0FFF791
:103CE000E3F9044638E034E0FFF7DEF9074604E084
:103CF000FFF7DAF9C01B02282BD828688001F7D417
:103D0000206AB0F5803F05D16868A16820F40030D2
:103D100008436860D4E908010843696821F4741114
:103D200008436860C6F86090FFF7BEF9044606E0F5
:103D300025E000BFFFF7B8F9001B022809D8286862
:103D40008001F7D51BE000BFFFF7AEF9001B02288A
:103D500002D90320BDE8F88F28688001F4D40EE072
:103D60000128F7D06868226A00F48031914204D1BA
:103D7000616A00F47010884201D00120EAE7002057
:103D8000E8E7000000100240000042428004424286
:103D9000800000200070004070B5040008D0606A08
:103DA000002538B12561656194F8510040B10CE0FF
:103DB000012070BD6068B0F5827FF5D0E561F3E762
:103DC00084F85050204600F047F8022084F8510053
:103DD0002068016821F040010160A088218900F479
:103DE000827001F404410843A18901F40061084391
:103DF000217C01F002010843217D01F0010108430B
:103E0000218B01F400710843217F01F03801084340
:103E100094F8201001F080010843218D01F4005135
:103E2000084321680860A069042101EA1040216864
:103E30004860A06AB0F5005F03D1A08D216880B210
:103E400008612068C16921F40061C16165650120D4
:103E500084F85100002070BD30B585B00024009476
:103E600001940294039400681449884223D11448B1
:103E7000816941F480518161816901F4805104912B
:103E8000816941F00401816180690E4D00F00400F8
:103E90000490A02000900220019003200390694626
:103EA0002846FFF707F84020CDE900046946284678
:103EB0000294FEF7FFFF05B030BD00000030014066
:103EC00000100240000801402DE9FF4F81B04FF083
:103ED000000A0446CDF800A090F850000E9F1D4641
:103EE00093464FF00109564601280ED0012084F870
:103EF0005000FFF7D9F8804694F851006168012816
:103F00000DD0B1F5827F08D103E0022005B0BDE8F5
:103F1000F08FA16809B9042801D002260DE10298AA
:103F2000C0B3BBF1000F36D0A5B394F851000428FC
:103F300002D0052084F85100C4F854A0C4F838B069
:103F4000E587A58702992163E586A586C4F840A088
:103F5000C4F844A0A06A4FF4005B584509D120681A
:103F6000016821F4005101602068016841F40051AA
:103F7000016020680168490603D4016841F04001EE
:103F80000160E068B0F5006F606806D0F0B3012D05
:103F900051D094E0FFE70126CFE008B1012D43D1D5
:103FA000206B21680088C860206B801C2063E08E35
:103FB000401EE08638E020688168890719D5E18EC7
:103FC000B9B1B9F1010F14D1216B0988C160206B1F
:103FD000801C2063E08E401EE086E08E4FF00009DA
:103FE00038B9A06A584504D12068016841F480516D
:103FF000016020688168C9070ED0E18F61B1C06897
:10400000A16B0880A06B801CA06300E013E0E08F30
:10401000401EE0874FF00109FFF746F8A0EB0800CB
:10402000B84201D3781C60D1E08E0028C3D1E08F64
:104030000028C0D149E0206B216800780873206B0C
:10404000401C2063E08E401EE08638E020688168D6
:10405000890719D5E18EB9B1B9F1010F14D1216BDE
:1040600009780173206B401C2063E08E401EE086BF
:10407000E08E4FF0000938B9A06A584504D1206895
:10408000016841F48051016020688168C9070CD043
:10409000E18F51B1C068A16B0870A06B401CA06398
:1040A000E08F401EE0874FF00109FEF7FDFFA0EB17
:1040B0000800B84202D3781C01D016E0AFB1E08E00
:1040C0000028C3D1E08F0028C0D1A06A584511D183
:1040D00001223B4611462046CDF8008001F08CFAC3
:1040E00028B1606D40F002006065032625E020687D
:1040F000C068009020688168C943C9060DD4616D0D
:1041000041F002016165016821F4005101602068FD
:10411000016841F4005101600126424639462046BB
:1041200001F0F8F918B101262020606505E0A068CB
:1041300018B92068C16880680090012084F8510097
:1041400084F850A03046E1E610B5401EB0F1807F03
:1041500001D3012010BD4FF0E02460610F216017F2
:1041600001F0FAFC0020A06107202061002010BDB2
:104170007047704770B590F83C20012A26D0012482
:1041800080F83C40022280F83D2003685A689D6810
:1041900022F070060A6832435A600D4B02689A4258
:1041A00008D0B2F1804F05D00A4B9A4202D00A4B98
:1041B0009A4204D1496825F080031943916080F840
:1041C0003D40002180F83C10084670BD022070BDC3
:1041D000002C0140000400400008004010B504001D
:1041E00003D094F83D0010B107E0012010BD00207D
:1041F00084F83C00204600F01FF8022084F83D00BF
:10420000211D206801F0FCFA012084F8460084F8A2
:104210003E0084F83F0084F8400084F8410084F8B0
:10422000420084F8430084F8440084F8450084F890
:104230003D00002010BD000008B51A4A01681A4868
:10424000914208D1816941F400618161806900F483
:104250000060009008BD154A91420ED1C16941F03D
:104260000201C161C069002200F002000090114605
:104270001D20FFF76DFA1D2010E00D4A9142E9D193
:10428000C16941F00401C161C069002200F004006D
:10429000009011461E20FFF75BFA1E20BDE8084083
:1042A000FFF748BA002C0140001002400004004013
:1042B0000008004090F83D10012901D0012070470E
:1042C000022180F83D1000680B49884208D0B0F107
:1042D000804F05D00949884202D00949884204D15B
:1042E000816801F00701062903D0016841F001014E
:1042F0000160002070470000002C014000040040D5
:104300000008004090F83D10012901D001207047BD
:10431000022180F83D100168CA6842F00102CA60BB
:1043200000680B49884208D0B0F1804F05D0094998
:10433000884202D00849884204D1816801F007010F
:10434000062903D0016841F0010101600020704797
:10435000002C0140000400400008004070B50446F5
:1043600090F83C00012817D0012584F83C50022029
:1043700084F83D002068826822F0770222F47F42B0
:1043800082600868502830D00DDC20284DD005DC34
:1043900098B310283BD148E0022070BD302844D0AB
:1043A000402834D139E0602828D0702806D0B0F5F4
:1043B000805F2CD0B0F5005F29D10AE0CB68D1E94D
:1043C0000121206801F052FA2068816841F07701EC
:1043D00009E0CB68D1E90121206801F047FA2068A3
:1043E000816841F48041816011E0CA6849682068B1
:1043F00001F04EFA5021206807E016E0CA684968CB
:10440000206801F056FA6021206801F039FA84F83A
:104410003D50002084F83C0070BDCA68496820689F
:1044200001F036FA40212068EFE722680146104685
:10443000EBE7704770B50446006801694FF000056E
:10444000C943890715D4C168C943890711D4E91E36
:10445000016101202077206880698007204602D012
:10446000FFF7E7FF04E000F098F8204600F096F828
:10447000257720680169C943490717D4C168C94332
:10448000490713D46FF004010161022020772068EE
:10449000806910F4407F204602D0FFF7CAFF04E095
:1044A00000F07BF8204600F079F825772068016954
:1044B000C943090716D4C168C943090712D46FF06C
:1044C00008010161042020772068C0698007204628
:1044D00002D0FFF7AEFF04E000F05FF8204600F0E6
:1044E0005DF8257720680169C943C90617D4C168FA
:1044F000C943C90613D46FF0100101610820207769
:104500002068C06910F4407F204602D0FFF791FF79
:1045100004E000F042F8204600F040F825772068DB
:104520000169C943C90708D1C168C943C90704D192
:10453000891E0161204600F033F820680169C943F3
:10454000090609D4C168C943090605D46FF0800182
:1045500001612046FFF70CFE20680169C943490646
:1045600009D4C168C943490605D46FF0400101610F
:10457000204600F02DF820680169C94389060BD454
:10458000C168C943890607D46FF020010161204644
:10459000BDE87040FFF7EDBD70BD7047704700008B
:1045A000084A01680848914203D1027842F00202A9
:1045B0000270064A914203D1017841F01401017062
:1045C00070470000000400400A000020000800407E
:1045D0007047704770470000F8B5026804461068DD
:1045E000D168536910F00F0F4FF0000553D003F05E
:1045F000010601F4907737435FD0C20705D0CA05A2
:1046000003D5226C42F001022264420705D5DA0785
:1046100003D0226C42F002022264820705D5DA0739
:1046200003D0226C42F004022264020707D501F095
:104630002002324303D0226C42F008022264226C32
:10464000002A34D0800604D5880602D5204601F021
:1046500062F920684069216CC0F38010090700D41A
:1046600030B3204601F03FF92068416949061BD567
:10467000416921F040014161A06BA8B158494163F3
:10468000A06BFEF79BFA002811D0A06B416B01B024
:10469000BDE8F040084783060FD58B060DD52046B0
:1046A000BDE8F84001F037B92046FFF793FFF8BDA9
:1046B0002046FFF78FFF2564F8BD266B2023012ECF
:1046C00052D1C60650D5CE064ED51068506800901F
:1046D000506940062AD5A16B086840680004000CA8
:1046E000EAD0A68D8642E7D9E0858869202818D0CF
:1046F000D06820F48070D0602068416921F0010109
:1047000041612068416921F04001416184F83E30F7
:1047100025632068C16821F01001C160A06BFEF71D
:1047200029FAA08DE18D401A81B219E0A08DE18DAA
:10473000401A81B2E08D0028BED00029BCD0D068DC
:1047400020F49070D0602068426922F0010242613A
:1047500084F83E3025632068C26822F01002C260EF
:104760002046FFF736FFF8BD05062BD50D0629D5E7
:1047700094F83D002128F6D1A068B0F5805F01D102
:104780002069B0B1206A411C21622168007848602C
:10479000E08C401E0004000CE084E4D12068C16875
:1047A00021F08001C1602068C16841F04001C16012
:1047B000F8BD206A0088C0F308005060206A801CA1
:1047C0002062E5E74006F3D54806F1D5D1682046DA
:1047D00021F04001D16084F83D3000F00AF9F8BDC5
:1047E000D758000870B5040004D094F83D000025A7
:1047F00010B106E0012070BD84F83C50204600F066
:1048000023F8242084F83D002068C16821F4005179
:10481000C160204601F0DAF82068016921F4904176
:1048200001612068416921F02A0141612068C16865
:1048300041F40051C1602564202084F83D0084F8D3
:104840003E00002070BD000030B585B0002400940B
:104850000194029403940068184988422CD11848A6
:10486000816941F480418161816901F48041049151
:10487000816941F0040181618069124D00F00400FA
:1048800004904FF4007000900220019003200390E8
:1048900069462846FEF70EFB2815CDE90004694657
:1048A00028460294FEF706FB002211462520FEF75B
:1048B0004FFF2520FEF73EFF05B030BD0038014018
:1048C000001002400008014090F83E30202B0ED12D
:1048D00059B152B190F83C30012B08D0012380F837
:1048E0003C300023036301F0CDB801207047022063
:1048F0007047000070B5104C0025E07A642806D09F
:10490000722806D0632808D061280AD00BE0032063
:1049100004E065700120207005E0022020706570C1
:1049200001E001F045FBE572BDE87040024901225B
:104930000B310248FFF7C8BF000000205C020020D6
:104940002DE9F843044690F83D001F4616460D46F3
:1049500020284CD1C5B1BEB194F83C00012846D006
:10496000012084F83C004FF00008C4F8408021206A
:1049700084F83D00FEF798FBA6848146E684A06893
:10498000B0F5805F03D004E00120BDE8F883206922
:1049900028B12E465FF0000584F83C800EE000262A
:1049A000FAE78021204601F088F8A0B9AEB116F8E8
:1049B000010B21684860E08C401EE084E08C4B468F
:1049C0004FF0000200970028EBD14FF04001204645
:1049D00001F073F830B10320D7E735F8020BC0F3CC
:1049E0000800E6E7202084F83D000020CDE7022003
:1049F000CBE77047FEE701684A69D24352050FD4FE
:104A00006FF480624A61002140F8301F2022427317
:104A10008173026942F00402026101730120704750
:104A2000002070472DE9F84F0446006889460B9D29
:104A300001689846174641F480610160206801686A
:104A400041F48071016000954FF0011B002259462E
:104A500020460A9B00F0DEF84FF4007A40B120684F
:104A60000068C00501D5C4F840A00320BDE8F88F58
:104A7000216809F0FE0008612B46284920460A9A61
:104A800000F0FCF8F0BB20684169806900902A467C
:104A900020460A9900F070F940B1206C04283AD100
:104AA0002068016841F40071016034E0FEB2B8F1A1
:104AB000010F09D02168380A08612A4620460A9960
:104AC00000F05AF90028E8D1206806612A462046FD
:104AD0000A9900F051F90028DFD12068016841F4FB
:104AE0008071016000950022594620460A9B00F023
:104AF00091F80028B3D1216809F0FF0040F00100CF
:104B0000086100E007E02B46044920460A9A00F0BD
:104B1000B5F80028AAD00120A8E700000200010093
:104B20002DE9F843044600680D46DDE90897016861
:104B30009846164641F4807101604B4600224FF0C2
:104B400001112046009700F065F848B12068006820
:104B5000C00502D54FF4007020640320BDE8F8833F
:104B6000216805F0FE0008613B464A46154920468B
:104B700000F084F888B920684169806900903A465D
:104B80004946204600F0F8F848B1206C042804D1CA
:104B90002068016841F4007101600120DEE7F5B290
:104BA000B8F1010F09D02168300A08613A46494638
:104BB000204600F0E1F80028E7D1206805610020D8
:104BC000CCE700000200010070B516460D46044611
:104BD0000DE02046FFF70FFF08B1012070BD681CF3
:104BE00005D0FEF761FA801BA84207D835B12068CE
:104BF0004069C0434007ECD4002070BD002044F859
:104C0000300F20216173A073216941F020012161DF
:104C10002073E2E72DE9F0471E4690460D46044614
:104C2000C1F30747DDF8209008E0701C06D0FEF7BE
:104C30003BFAA0EB0900B0420FD876B12068012FF3
:104C400018D0806925EA00000004000C14D000216F
:104C50004145EAD00020BDE8F087002044F8300F3D
:104C600020216173A073216941F02001216120732B
:104C70000120F0E74069E5E70121E9E72DE9F04788
:104C80009A4691460E46044600254FF02008C1F38F
:104C9000074725E020684069C043400514D42068D8
:104CA000016841F40071016021686FF4806048611F
:104CB000256384F83D8084F83E50206C40F0040069
:104CC000206484F83C501FE0B9F1FF3F08D0FEF7A4
:104CD000EBF9A0EB0A0149450CD8B9F1000F09D056
:104CE0002068012F13D0806926EA00000004000C20
:104CF0000BD0CFE744F8305F84F80D80A5732069AE
:104D000040F02000206125730120BDE8F087406954
:104D1000EAE72DE9F041002590460E46044620279B
:104D200017E04069C043C0060CD454F8301B6FF044
:104D30001000486144F810596777A577206A20620F
:104D4000257717E0FEF7B0F9A0EB0800B04208D8CD
:104D50003EB120684169C9434906E2D40020BDE85C
:104D6000F08144F8305F6773A573206940F020003C
:104D7000206125730120F2E770B516460D46044602
:104D80000DE02046FFF737FE08B1012070BD681C1A
:104D900005D0FEF789F9801BA84207D835B12068F5
:104DA0004069C0430006ECD4002070BD002044F8E8
:104DB000300F20216173A073216941F0200121612E
:104DC0002073E2E7FEB500242848009401942649A8
:104DD0000294016089158160012505730475082618
:104DE00006614FF460214460C161FDF7A5FDCDE986
:104DF0000045072469461D480294FDF71FFD0095F4
:104E00000225694619480195FDF718FD009503250F
:104E1000694616480195FDF711FD0420CDE90050C3
:104E200069461248FDF70AFD09200090052001900F
:104E300069460E48FDF702FD0B2000900620019008
:104E400069460A48FDF7FAFC0C20CDE900046946E2
:104E50000648FDF7F3FC0D20CDE90006694603483E
:104E6000FDF7ECFCFEBD0000002401409C0000208A
:104E70002DE9F04186B00024394800940194029451
:104E80000394816941F010018161816901F0100191
:104E90000491816941F020018161816901F0200163
:104EA0000491816941F004018161816901F004018B
:104EB0000491816941F0080181618069294F00F006
:104EC00008004EF230050490002229463846FEF7CD
:104ED000E6F8DFF89480002210214046FEF7DFF864
:104EE0000095022601250396CDE90154694638460E
:104EF000FDF7E0FFCDE90054694638460294FDF71E
:104F0000D9FF1020CDE900050320CDE90240694614
:104F10004046FDF7CFFF15486946CDE90050144DD6
:104F200002962846FDF7C6FF0420CDE90004694635
:104F300010480294FDF7BEFF3820CDE90004694611
:104F400028460294FDF7B6FF002211460620FEF720
:104F5000FFFB0620FEF7EEFB06B0BDE8F081000087
:104F60000010024000100140000801400000111034
:104F7000000C0140001401400D480C494FF4007230
:104F800001604FF48271416000218160C160016164
:104F9000C0E905122822C0E9072141624FF40051FF
:104FA00081620721C162FEF7F7BE000000300140B8
:104FB0002C01002010B586B0002412480094019402
:104FC0000294039404940E49059401604821C0E9B9
:104FD00001144FF6FF71C0E9031444618461FFF7C7
:104FE000FDF84FF48050009069460648FFF7B6F987
:104FF000049404A903480594FFF7BCF806B010BD5B
:10500000002C01408401002010B586B00024124815
:10501000009401940294039404940E490594016051
:1050200048F69F41C0E901144FF47A61C0E90314C6
:105030008461FFF7D3F84FF480500090694606482A
:10504000FFF78CF9049404A903480594FFF792F83C
:1050500006B010BD00040040CC01002010B586B0A1
:1050600000241248009401940294039404940E497D
:105070000594016048F69F41C0E901144FF4FA61BC
:10508000C0E903148461FFF7A9F84FF48050009041
:1050900069460648FFF762F9049404A90348059499
:1050A000FFF768F806B010BD0008004014020020A9
:1050B000FEE77047704700002DE9F05F614C002566
:1050C00042F2FC164FF46169AA46A4F2644801203A
:1050D000FCF764FA474628F81500B04205D927F8CE
:1050E00015902078401C207001E084F800A0022078
:1050F000FCF754FAB84607EB4507B042F88105D9EA
:10510000A7F80E906078401C607001E084F801A060
:105110000320FCF743FAB883B04205D9A7F81C90E6
:10512000A078401CA07001E084F802A01020FCF7D9
:1051300035FAA7F8D200B04205D9A7F8D290E07BA3
:10514000401CE07301E084F80FA0C820FDF75AFE70
:105150006D1CEDB2072DBAD33B4A002002F14C0A78
:105160001178235C032B06D9DAF80030042143F0D0
:105170008073CAF80030401CC0B21028F1D39146A9
:1051800011704FF0010B002700243048C7EBC70116
:105190002546264600EB410838F81600FBF701F9D2
:1051A00022462B46FAF7E7FF761CF6B204460D4678
:1051B000072EF1D30022264BFBF784F804460D4658
:1051C0000022244BFBF712F90AD2234E012291034D
:1051D0003046FDF764FFDAF8001041F4807110E00A
:1051E00000221E4B20462946FBF7E8F813D21A4E40
:1051F000012291033046FDF752FFDAF8001041F426
:105200000071CAF80010042089F800000122102162
:105210003046FDF744FF0022114B20462946FBF79C
:10522000E5F807D2012210210B48FDF738FF4FF0B7
:10523000000B03E07F1CFFB2102FA5D35846BDE83A
:10524000F09F00000407002000000020A0020020C2
:1052500000001C4000FEB040001001400070A7405C
:105260000068B0402DE9F84F624C002542F2FC1670
:105270004FF4616AA946A4F264480120FCF78EF954
:10528000474628F81500B04205D927F815A0207820
:10529000401C207001E084F800900220FCF77EF9A9
:1052A000B84607EB4507B042F88105D9A7F80EA02C
:1052B0006078401C607001E084F801900320FCF7E6
:1052C0006DF9B883B04205D9A7F81CA0A078401C9E
:1052D000A07001E084F802901020FCF75FF9A7F8B5
:1052E000D200B04205D9A7F8D2A0E07B401CE07301
:1052F00001E084F80F906420FDF784FD6D1CEDB291
:10530000072DBAD33C4A002002F14C0B1178235CE4
:10531000032B06D9DBF80030042143F08073CBF86F
:105320000030401CC0B21028F1D301201170924609
:105330000027009000243148C7EBC70125462646C8
:1053400000EB410838F81600FBF72BF822462B46F5
:10535000FAF711FF761CF6B204460D46072EF1D37C
:105360000022274BFAF7AEFF04460D460022254BDC
:10537000FBF724F80AD2244E012291033046FDF7B0
:105380008EFEDBF8001041F4007110E000221F4B8C
:1053900020462946FBF72AF813D21B4E012291031F
:1053A0003046FDF77CFEDBF8001041F48071CBF84D
:1053B000001004208AF80000012210213046FDF779
:1053C0006EFE0022124B20462946FAF7F7FF0AD25A
:1053D000012210210C48FDF762FE8AF8019000209E
:1053E0000090BDE8F88F7F1CFFB2102FA2D3009869
:1053F000F7E700000407002000000020A0020020C2
:1054000000001C400070A7400010014000FEB040AA
:105410000038A840124810B50168124C21F4C04170
:1054200041F480510160012210212046FDF737FE32
:1054300000224FF400412046FDF731FE00226114A6
:105440002046FDF72CFE00224FF480412046FDF758
:1054500026FEFBF7B5F8BDE81040FCF795B9000053
:105460004C0000200010014070B5294E00204FF480
:105470006153A6F528749A1026F810305FF00001E9
:10548000C1EBC10504EB4505491CC9B225F8102044
:105490001029F5D3401CC0B20728EDD31C4D0020C5
:1054A0000E35A5F5E77400BF25F810305FF0000158
:1054B000C1EBC10604EB8606491CC9B226F81020D0
:1054C0001029F5D3401CC0B20E28EDD3104C00209B
:1054D00074344FF4FA6204F17005C0EBC00300218C
:1054E00004EB430626F81120491CC9B20729F9D359
:1054F000002105EB830300BF23F81120491CC9B22A
:105500000E29F9D3401CC0B20828E6D370BD0000B4
:105510004005002038B50B46009204460022802149
:1055200000F06AF8002804D0606D40F0200060654B
:10553000032038BD2DE9F74F0A26002782B0914697
:1055400004463D46DFF8A4804FF0010B49E02848AF
:10555000FF2100220470417010214046FDF79FFD9D
:105560002349DA460223234A01F19C00CDF800B01A
:10557000FEF7AAFC012210214046FDF790FDD3461C
:10558000DFF870A023E000BF4FF4FA7000F0B4FB26
:10559000002210214046FDF782FD15490223154ADD
:1055A00001F19C00CDF800B0FEF78EFC0122102125
:1055B0004046FDF774FD9AF80000A04205D103981B
:1055C0009AF80110761E415503E0761E0FB9002EA1
:1055D000DAD1641C0027E4B24FF4FA7000F08CFBBF
:1055E0006D1C4D45B3D305B0BDE8F08F00080140F8
:1055F00090000020160000202DE9F8431E46914639
:1056000088460446089DFDF74FFD401B351AFDF7FF
:105610004BFD074625480068C0F3CB30684338E0AF
:10562000701C37D0FDF740FDC01BA84203D215B156
:10563000009860B32CE02068416821F0E0014160EF
:105640006068B0F5827F0BD1A068B0F5004F02D042
:10565000B0F5806F04D12068016821F0400101603D
:10566000A06AB0F5005F09D12068016821F40051FB
:1056700001602068016841F400510160012084F854
:105680005100002084F850000320BDE8F883002575
:10569000401E00902068816838EA010004D0002193
:1056A0004945BDD10020F0E70121F9E78000002045
:1056B0002DE9F84F0A26002791468B4640F08005D9
:1056C0003C46DFF8A8804CE02948002205701BF812
:1056D0000410417010214046FDF7E1FC24494FF0D1
:1056E000010A0223234A01F19C00CDF800A0FEF735
:1056F000EBFB012210214046FDF7D1FCDFF874A03E
:1057000025E000BF4FF4FA7000F0F6FA00221021F5
:105710004046FDF7C4FC0120154900900223154ABC
:1057200001F19C00FEF7D0FB012210214046FDF75D
:10573000B6FC9AF80010A94207D19AF801101BF89C
:105740000400814201D1761E03E0761E0FB9002EBF
:10575000D8D16D1C0027EDB24FF4FA7000F0CCFAEE
:10576000641C4C45B0D3BDE8F88F00000008014030
:1057700090000020160000207047FDF783BF30B571
:1057800093B028216846FAF7E4FC14210AA8FAF736
:10579000E0FC00240F940920012110940090119442
:1057A00012944FF4803004910691CDE90104022552
:1057B000CDE907504FF4E01009906846FEF75CF918
:1057C0000F20CDE90A056802CDE90C4002210AA8A4
:1057D0000E94FEF765F8A80311900F950FA8FDF73A
:1057E000E9FF13B030BD70470148FEF723BE00004B
:1057F000CC0100200148FEF71DBE0000140200206D
:10580000F0B50268164B174C174D4FF08047984281
:1058100005D0B84203D0A04201D0A84203D122F063
:1058200070064A683243984205D0B84203D0A0427D
:1058300001D0A84203D122F44074CA6822434C69C3
:1058400022F08002224302608A68C2620A68826291
:10585000984201D10969016301214161F0BD000055
:10586000002C0140000400400008004010B584688E
:1058700042EA032224F47F440A432243826010BD9B
:10588000826822F070020A4342F00701816070478B
:1058900010B5036A046A24F001040462846924F0E8
:1058A000F00444EA021423F00A020A43846102620B
:1058B00010BD10B5036A23F0100303628369046A04
:1058C00023F4704343EA023224F0A00343EA0111B7
:1058D0008261016210BD10B5406A0021C185C1849A
:1058E000FEF778FE10BD0168CA6822F49072CA60A3
:1058F00001684A6922F001024A61016B012904D161
:105900000168CA6822F01002CA60202180F83E10A7
:1059100000210163704708B590F83E10222901D09C
:10592000022008BD82684FF480539A4201D1016978
:1059300021B1816A9A421BD04AB10AE00268816AA9
:105940005268C2F308020A80816A891C08E0026971
:1059500072B10268526802F07F020A70816A491CC3
:105960008162C18D491E0904090CC18503D019E06B
:1059700002685268F1E70168CA6822F02002CA6032
:105980000168CA6822F48072CA6001684A6922F01C
:1059900001024A61202180F83E10016B012903D0E9
:1059A000FEF7A8FF002008BD002101630168CA6856
:1059B00022F01002CA6001680A68D20602D50A689D
:1059C00049680091818DFEF704FEEBE770B504464F
:1059D00000680169E26821F44051114301612169C5
:1059E000A0680843616908432168CA6841F20C63F2
:1059F0009A430243CA6020684169A26921F4407158
:105A0000114341611E492068884202D1FDF7EEFF33
:105A100001E0FDF7DBFF00EBC00101EB0012606865
:105A200064218000B2FBF0F3B3FBF1F36FF01806D2
:105A30007343B2FBF0F5B2FBF0F605EB83053223BE
:105A400003EB0515B5FBF1F5B6FBF1F605F0F00536
:105A500005EB0615B2FBF0F6B2FBF0F0B0FBF1F08F
:105A60006FF01802504306EB800003EB0010B0FB10
:105A7000F1F0216800F00F002844886070BD00003C
:105A80000038014081628285C285002101642222A2
:105A900080F83E2080F83C100168CA6842F48072A9
:105AA000CA6001684A6942F001024A610068C1683F
:105AB00041F02001C160002070472DE9F041984677
:105AC00017460E460446069D1DE0681C1BD02DB1EE
:105AD000FDF7EAFAA0EB0800A84214D92068C168D3
